{
  "_format": "hh-sol-artifact-1",
  "contractName": "ProGuard",
  "sourceName": "contracts/ProGuard.sol",
  "abi": [
    {
      "inputs": [
        {
          "internalType": "string",
          "name": "_serialNumber",
          "type": "string"
        },
        {
          "internalType": "string",
          "name": "_actor",
          "type": "string"
        },
        {
          "internalType": "string",
          "name": "_location",
          "type": "string"
        },
        {
          "internalType": "string",
          "name": "_timestamp",
          "type": "string"
        },
        {
          "internalType": "bool",
          "name": "_isSold",
          "type": "bool"
        }
      ],
      "name": "addProductHistory",
      "outputs": [],
      "stateMutability": "nonpayable",
      "type": "function"
    },
    {
      "inputs": [
        {
          "internalType": "string",
          "name": "_serialNumber",
          "type": "string"
        }
      ],
      "name": "getProduct",
      "outputs": [
        {
          "internalType": "string",
          "name": "",
          "type": "string"
        },
        {
          "internalType": "string",
          "name": "",
          "type": "string"
        },
        {
          "internalType": "string",
          "name": "",
          "type": "string"
        },
        {
          "internalType": "string",
          "name": "",
          "type": "string"
        },
        {
          "internalType": "string",
          "name": "",
          "type": "string"
        },
        {
          "components": [
            {
              "internalType": "uint256",
              "name": "id",
              "type": "uint256"
            },
            {
              "internalType": "string",
              "name": "actor",
              "type": "string"
            },
            {
              "internalType": "string",
              "name": "location",
              "type": "string"
            },
            {
              "internalType": "string",
              "name": "timestamp",
              "type": "string"
            },
            {
              "internalType": "bool",
              "name": "isSold",
              "type": "bool"
            }
          ],
          "internalType": "struct ProGuard.ProductHistory[]",
          "name": "",
          "type": "tuple[]"
        }
      ],
      "stateMutability": "view",
      "type": "function"
    },
    {
      "inputs": [],
      "name": "owner",
      "outputs": [
        {
          "internalType": "address",
          "name": "",
          "type": "address"
        }
      ],
      "stateMutability": "view",
      "type": "function"
    },
    {
      "inputs": [
        {
          "internalType": "string",
          "name": "_name",
          "type": "string"
        },
        {
          "internalType": "string",
          "name": "_brand",
          "type": "string"
        },
        {
          "internalType": "string",
          "name": "_serialNumber",
          "type": "string"
        },
        {
          "internalType": "string",
          "name": "_description",
          "type": "string"
        },
        {
          "internalType": "string",
          "name": "_image",
          "type": "string"
        },
        {
          "internalType": "string",
          "name": "_actor",
          "type": "string"
        },
        {
          "internalType": "string",
          "name": "_location",
          "type": "string"
        },
        {
          "internalType": "string",
          "name": "_timestamp",
          "type": "string"
        }
      ],
      "name": "registerProduct",
      "outputs": [],
      "stateMutability": "nonpayable",
      "type": "function"
    }
  ],
  "bytecode": "0x608060405234801561001057600080fd5b50611918806100206000396000f3fe608060405234801561001057600080fd5b506004361061004c5760003560e01c80633e2357e31461005157806368111cce1461006d5780638da5cb5b146100a2578063b4b33ef5146100c0575b600080fd5b61006b60048036038101906100669190610e12565b6100dc565b005b61008760048036038101906100829190610fa8565b61017b565b60405161009996959493929190611234565b60405180910390f35b6100aa6107f1565b6040516100b79190611300565b60405180910390f35b6100da60048036038101906100d59190611347565b610815565b005b60006001876040516100ee919061146e565b908152602001604051809103902090508881600001908161010f9190611691565b50878160030190816101219190611691565b50868160010190816101339190611691565b50858160020190816101459190611691565b50848160040190816101579190611691565b5060008160060181905550610170878585856000610815565b505050505050505050565b6060806060806060806000600188604051610196919061146e565b90815260200160405180910390206006015467ffffffffffffffff8111156101c1576101c0610ce7565b5b6040519080825280602002602001820160405280156101fa57816020015b6101e7610c7d565b8152602001906001900390816101df5790505b50905060005b600189604051610210919061146e565b90815260200160405180910390206006015481101561047857600189604051610239919061146e565b908152602001604051809103902060050160006001836102599190611792565b81526020019081526020016000206040518060a00160405290816000820154815260200160018201805461028c906114b4565b80601f01602080910402602001604051908101604052809291908181526020018280546102b8906114b4565b80156103055780601f106102da57610100808354040283529160200191610305565b820191906000526020600020905b8154815290600101906020018083116102e857829003601f168201915b5050505050815260200160028201805461031e906114b4565b80601f016020809104026020016040519081016040528092919081815260200182805461034a906114b4565b80156103975780601f1061036c57610100808354040283529160200191610397565b820191906000526020600020905b81548152906001019060200180831161037a57829003601f168201915b505050505081526020016003820180546103b0906114b4565b80601f01602080910402602001604051908101604052809291908181526020018280546103dc906114b4565b80156104295780601f106103fe57610100808354040283529160200191610429565b820191906000526020600020905b81548152906001019060200180831161040c57829003601f168201915b505050505081526020016004820160009054906101000a900460ff1615151515815250508282815181106104605761045f6117c6565b5b60200260200101819052508080600101915050610200565b50600188604051610489919061146e565b90815260200160405180910390206001016001896040516104aa919061146e565b908152602001604051809103902060000160018a6040516104cb919061146e565b908152602001604051809103902060030160018b6040516104ec919061146e565b908152602001604051809103902060020160018c60405161050d919061146e565b90815260200160405180910390206004018585805461052b906114b4565b80601f0160208091040260200160405190810160405280929190818152602001828054610557906114b4565b80156105a45780601f10610579576101008083540402835291602001916105a4565b820191906000526020600020905b81548152906001019060200180831161058757829003601f168201915b505050505095508480546105b7906114b4565b80601f01602080910402602001604051908101604052809291908181526020018280546105e3906114b4565b80156106305780601f1061060557610100808354040283529160200191610630565b820191906000526020600020905b81548152906001019060200180831161061357829003601f168201915b50505050509450838054610643906114b4565b80601f016020809104026020016040519081016040528092919081815260200182805461066f906114b4565b80156106bc5780601f10610691576101008083540402835291602001916106bc565b820191906000526020600020905b81548152906001019060200180831161069f57829003601f168201915b505050505093508280546106cf906114b4565b80601f01602080910402602001604051908101604052809291908181526020018280546106fb906114b4565b80156107485780601f1061071d57610100808354040283529160200191610748565b820191906000526020600020905b81548152906001019060200180831161072b57829003601f168201915b5050505050925081805461075b906114b4565b80601f0160208091040260200160405190810160405280929190818152602001828054610787906114b4565b80156107d45780601f106107a9576101008083540402835291602001916107d4565b820191906000526020600020905b8154815290600101906020018083116107b757829003601f168201915b505050505091509650965096509650965096505091939550919395565b60008054906101000a900473ffffffffffffffffffffffffffffffffffffffff1681565b6000600186604051610827919061146e565b9081526020016040518091039020905080600601600081548092919061084c906117f5565b91905055506040518060a0016040528082600601548152602001868152602001858152602001848152602001831515815250816005016000836006015481526020019081526020016000206000820151816000015560208201518160010190816108b69190611691565b5060408201518160020190816108cc9190611691565b5060608201518160030190816108e29190611691565b5060808201518160040160006101000a81548160ff0219169083151502179055509050506109496040518060400160405280600681526020017f69313a20257300000000000000000000000000000000000000000000000000008152508260060154610aff565b610a2c6040518060400160405280601981526020017f50726f6475637420486973746f72792061646465643a202573000000000000008152508260050160008460060154815260200190815260200160002060010180546109a9906114b4565b80601f01602080910402602001604051908101604052809291908181526020018280546109d5906114b4565b8015610a225780601f106109f757610100808354040283529160200191610a22565b820191906000526020600020905b815481529060010190602001808311610a0557829003601f168201915b5050505050610b9b565b610af76040518060400160405280600c81526020017f50726f64756374203a2025730000000000000000000000000000000000000000815250826000018054610a74906114b4565b80601f0160208091040260200160405190810160405280929190818152602001828054610aa0906114b4565b8015610aed5780601f10610ac257610100808354040283529160200191610aed565b820191906000526020600020905b815481529060010190602001808311610ad057829003601f168201915b5050505050610b9b565b505050505050565b610b978282604051602401610b1592919061184c565b6040516020818303038152906040527fb60e72cc000000000000000000000000000000000000000000000000000000007bffffffffffffffffffffffffffffffffffffffffffffffffffffffff19166020820180517bffffffffffffffffffffffffffffffffffffffffffffffffffffffff8381831617835250505050610c37565b5050565b610c338282604051602401610bb192919061187c565b6040516020818303038152906040527f4b5c4277000000000000000000000000000000000000000000000000000000007bffffffffffffffffffffffffffffffffffffffffffffffffffffffff19166020820180517bffffffffffffffffffffffffffffffffffffffffffffffffffffffff8381831617835250505050610c37565b5050565b610c4e81610c46610c51610c72565b63ffffffff16565b50565b60006a636f6e736f6c652e6c6f679050600080835160208501845afa505050565b610cae819050919050565b6040518060a00160405280600081526020016060815260200160608152602001606081526020016000151581525090565b610cb66118b3565b565b6000604051905090565b600080fd5b600080fd5b600080fd5b600080fd5b6000601f19601f8301169050919050565b7f4e487b7100000000000000000000000000000000000000000000000000000000600052604160045260246000fd5b610d1f82610cd6565b810181811067ffffffffffffffff82111715610d3e57610d3d610ce7565b5b80604052505050565b6000610d51610cb8565b9050610d5d8282610d16565b919050565b600067ffffffffffffffff821115610d7d57610d7c610ce7565b5b610d8682610cd6565b9050602081019050919050565b82818337600083830152505050565b6000610db5610db084610d62565b610d47565b905082815260208101848484011115610dd157610dd0610cd1565b5b610ddc848285610d93565b509392505050565b600082601f830112610df957610df8610ccc565b5b8135610e09848260208601610da2565b91505092915050565b600080600080600080600080610100898b031215610e3357610e32610cc2565b5b600089013567ffffffffffffffff811115610e5157610e50610cc7565b5b610e5d8b828c01610de4565b985050602089013567ffffffffffffffff811115610e7e57610e7d610cc7565b5b610e8a8b828c01610de4565b975050604089013567ffffffffffffffff811115610eab57610eaa610cc7565b5b610eb78b828c01610de4565b965050606089013567ffffffffffffffff811115610ed857610ed7610cc7565b5b610ee48b828c01610de4565b955050608089013567ffffffffffffffff811115610f0557610f04610cc7565b5b610f118b828c01610de4565b94505060a089013567ffffffffffffffff811115610f3257610f31610cc7565b5b610f3e8b828c01610de4565b93505060c089013567ffffffffffffffff811115610f5f57610f5e610cc7565b5b610f6b8b828c01610de4565b92505060e089013567ffffffffffffffff811115610f8c57610f8b610cc7565b5b610f988b828c01610de4565b9150509295985092959890939650565b600060208284031215610fbe57610fbd610cc2565b5b600082013567ffffffffffffffff811115610fdc57610fdb610cc7565b5b610fe884828501610de4565b91505092915050565b600081519050919050565b600082825260208201905092915050565b60005b8381101561102b578082015181840152602081019050611010565b60008484015250505050565b600061104282610ff1565b61104c8185610ffc565b935061105c81856020860161100d565b61106581610cd6565b840191505092915050565b600081519050919050565b600082825260208201905092915050565b6000819050602082019050919050565b6000819050919050565b6110af8161109c565b82525050565b600082825260208201905092915050565b60006110d182610ff1565b6110db81856110b5565b93506110eb81856020860161100d565b6110f481610cd6565b840191505092915050565b60008115159050919050565b611114816110ff565b82525050565b600060a08301600083015161113260008601826110a6565b506020830151848203602086015261114a82826110c6565b9150506040830151848203604086015261116482826110c6565b9150506060830151848203606086015261117e82826110c6565b9150506080830151611193608086018261110b565b508091505092915050565b60006111aa838361111a565b905092915050565b6000602082019050919050565b60006111ca82611070565b6111d4818561107b565b9350836020820285016111e68561108c565b8060005b858110156112225784840389528151611203858261119e565b945061120e836111b2565b925060208a019950506001810190506111ea565b50829750879550505050505092915050565b600060c082019050818103600083015261124e8189611037565b905081810360208301526112628188611037565b905081810360408301526112768187611037565b9050818103606083015261128a8186611037565b9050818103608083015261129e8185611037565b905081810360a08301526112b281846111bf565b9050979650505050505050565b600073ffffffffffffffffffffffffffffffffffffffff82169050919050565b60006112ea826112bf565b9050919050565b6112fa816112df565b82525050565b600060208201905061131560008301846112f1565b92915050565b611324816110ff565b811461132f57600080fd5b50565b6000813590506113418161131b565b92915050565b600080600080600060a0868803121561136357611362610cc2565b5b600086013567ffffffffffffffff81111561138157611380610cc7565b5b61138d88828901610de4565b955050602086013567ffffffffffffffff8111156113ae576113ad610cc7565b5b6113ba88828901610de4565b945050604086013567ffffffffffffffff8111156113db576113da610cc7565b5b6113e788828901610de4565b935050606086013567ffffffffffffffff81111561140857611407610cc7565b5b61141488828901610de4565b925050608061142588828901611332565b9150509295509295909350565b600081905092915050565b600061144882610ff1565b6114528185611432565b935061146281856020860161100d565b80840191505092915050565b600061147a828461143d565b915081905092915050565b7f4e487b7100000000000000000000000000000000000000000000000000000000600052602260045260246000fd5b600060028204905060018216806114cc57607f821691505b6020821081036114df576114de611485565b5b50919050565b60008190508160005260206000209050919050565b60006020601f8301049050919050565b600082821b905092915050565b6000600883026115477fffffffffffffffffffffffffffffffffffffffffffffffffffffffffffffffff8261150a565b611551868361150a565b95508019841693508086168417925050509392505050565b6000819050919050565b600061158e6115896115848461109c565b611569565b61109c565b9050919050565b6000819050919050565b6115a883611573565b6115bc6115b482611595565b848454611517565b825550505050565b600090565b6115d16115c4565b6115dc81848461159f565b505050565b5b81811015611600576115f56000826115c9565b6001810190506115e2565b5050565b601f82111561164557611616816114e5565b61161f846114fa565b8101602085101561162e578190505b61164261163a856114fa565b8301826115e1565b50505b505050565b600082821c905092915050565b60006116686000198460080261164a565b1980831691505092915050565b60006116818383611657565b9150826002028217905092915050565b61169a82610ff1565b67ffffffffffffffff8111156116b3576116b2610ce7565b5b6116bd82546114b4565b6116c8828285611604565b600060209050601f8311600181146116fb57600084156116e9578287015190505b6116f38582611675565b86555061175b565b601f198416611709866114e5565b60005b828110156117315784890151825560018201915060208501945060208101905061170c565b8683101561174e578489015161174a601f891682611657565b8355505b6001600288020188555050505b505050505050565b7f4e487b7100000000000000000000000000000000000000000000000000000000600052601160045260246000fd5b600061179d8261109c565b91506117a88361109c565b92508282019050808211156117c0576117bf611763565b5b92915050565b7f4e487b7100000000000000000000000000000000000000000000000000000000600052603260045260246000fd5b60006118008261109c565b91507fffffffffffffffffffffffffffffffffffffffffffffffffffffffffffffffff820361183257611831611763565b5b600182019050919050565b6118468161109c565b82525050565b600060408201905081810360008301526118668185611037565b9050611875602083018461183d565b9392505050565b600060408201905081810360008301526118968185611037565b905081810360208301526118aa8184611037565b90509392505050565b7f4e487b7100000000000000000000000000000000000000000000000000000000600052605160045260246000fdfea2646970667358221220464739d567041bd30d9a2b22d3736618615beba4ce29ab7c525164511e3642c564736f6c63430008180033",
  "linkReferences": {},
  "deployedLinkReferences": {}
}