{
  "_format": "hh-sol-artifact-1",
  "contractName": "ProGuard",
  "sourceName": "contracts/ProGuard.sol",
  "abi": [
    {
      "inputs": [],
      "stateMutability": "nonpayable",
      "type": "constructor"
    },
    {
      "inputs": [
        {
          "internalType": "string",
          "name": "_serialNumber",
          "type": "string"
        },
        {
          "internalType": "string",
          "name": "_actor",
          "type": "string"
        },
        {
          "internalType": "string",
          "name": "_location",
          "type": "string"
        },
        {
          "internalType": "string",
          "name": "_timestamp",
          "type": "string"
        },
        {
          "internalType": "bool",
          "name": "_isSold",
          "type": "bool"
        }
      ],
      "name": "addProductHistory",
      "outputs": [],
      "stateMutability": "nonpayable",
      "type": "function"
    },
    {
      "inputs": [
        {
          "internalType": "string",
          "name": "_serialNumber",
          "type": "string"
        }
      ],
      "name": "getProduct",
      "outputs": [
        {
          "internalType": "string",
          "name": "",
          "type": "string"
        },
        {
          "internalType": "string",
          "name": "",
          "type": "string"
        },
        {
          "internalType": "string",
          "name": "",
          "type": "string"
        },
        {
          "internalType": "string",
          "name": "",
          "type": "string"
        },
        {
          "internalType": "string",
          "name": "",
          "type": "string"
        },
        {
          "components": [
            {
              "internalType": "uint256",
              "name": "id",
              "type": "uint256"
            },
            {
              "internalType": "string",
              "name": "actor",
              "type": "string"
            },
            {
              "internalType": "string",
              "name": "location",
              "type": "string"
            },
            {
              "internalType": "string",
              "name": "timestamp",
              "type": "string"
            },
            {
              "internalType": "bool",
              "name": "isSold",
              "type": "bool"
            }
          ],
          "internalType": "struct ProGuard.ProductHistory[]",
          "name": "",
          "type": "tuple[]"
        }
      ],
      "stateMutability": "view",
      "type": "function"
    },
    {
      "inputs": [],
      "name": "owner",
      "outputs": [
        {
          "internalType": "address",
          "name": "",
          "type": "address"
        }
      ],
      "stateMutability": "view",
      "type": "function"
    },
    {
      "inputs": [
        {
          "internalType": "string",
          "name": "_name",
          "type": "string"
        },
        {
          "internalType": "string",
          "name": "_brand",
          "type": "string"
        },
        {
          "internalType": "string",
          "name": "_serialNumber",
          "type": "string"
        },
        {
          "internalType": "string",
          "name": "_description",
          "type": "string"
        },
        {
          "internalType": "string",
          "name": "_image",
          "type": "string"
        },
        {
          "internalType": "string",
          "name": "_actor",
          "type": "string"
        },
        {
          "internalType": "string",
          "name": "_location",
          "type": "string"
        },
        {
          "internalType": "string",
          "name": "_timestamp",
          "type": "string"
        }
      ],
      "name": "registerProduct",
      "outputs": [],
      "stateMutability": "nonpayable",
      "type": "function"
    }
  ],
  "bytecode": "0x608060405234801561001057600080fd5b50336000806101000a81548173ffffffffffffffffffffffffffffffffffffffff021916908373ffffffffffffffffffffffffffffffffffffffff160217905550611435806100606000396000f3fe608060405234801561001057600080fd5b506004361061004c5760003560e01c80633e2357e31461005157806368111cce1461006d5780638da5cb5b146100a2578063b4b33ef5146100c0575b600080fd5b61006b600480360381019061006691906109d4565b6100dc565b005b61008760048036038101906100829190610b6a565b61017b565b60405161009996959493929190610df6565b60405180910390f35b6100aa61072c565b6040516100b79190610ec2565b60405180910390f35b6100da60048036038101906100d59190610f09565b610750565b005b60006001876040516100ee9190611030565b908152602001604051809103902090508881600001908161010f9190611253565b50878160030190816101219190611253565b50868160010190816101339190611253565b50858160020190816101459190611253565b50848160040190816101579190611253565b5060008160060181905550610170878585856000610750565b505050505050505050565b60608060608060608060006001886040516101969190611030565b908152602001604051809103902090506000816006015467ffffffffffffffff8111156101c6576101c56108a9565b5b6040519080825280602002602001820160405280156101ff57816020015b6101ec610849565b8152602001906001900390816101e45790505b50905060005b8260060154811015610443578260050160006001836102249190611354565b81526020019081526020016000206040518060a00160405290816000820154815260200160018201805461025790611076565b80601f016020809104026020016040519081016040528092919081815260200182805461028390611076565b80156102d05780601f106102a5576101008083540402835291602001916102d0565b820191906000526020600020905b8154815290600101906020018083116102b357829003601f168201915b505050505081526020016002820180546102e990611076565b80601f016020809104026020016040519081016040528092919081815260200182805461031590611076565b80156103625780601f1061033757610100808354040283529160200191610362565b820191906000526020600020905b81548152906001019060200180831161034557829003601f168201915b5050505050815260200160038201805461037b90611076565b80601f01602080910402602001604051908101604052809291908181526020018280546103a790611076565b80156103f45780601f106103c9576101008083540402835291602001916103f4565b820191906000526020600020905b8154815290600101906020018083116103d757829003601f168201915b505050505081526020016004820160009054906101000a900460ff16151515158152505082828151811061042b5761042a611388565b5b60200260200101819052508080600101915050610205565b5081600101826000018360030184600201856004018585805461046590611076565b80601f016020809104026020016040519081016040528092919081815260200182805461049190611076565b80156104de5780601f106104b3576101008083540402835291602001916104de565b820191906000526020600020905b8154815290600101906020018083116104c157829003601f168201915b505050505095508480546104f190611076565b80601f016020809104026020016040519081016040528092919081815260200182805461051d90611076565b801561056a5780601f1061053f5761010080835404028352916020019161056a565b820191906000526020600020905b81548152906001019060200180831161054d57829003601f168201915b5050505050945083805461057d90611076565b80601f01602080910402602001604051908101604052809291908181526020018280546105a990611076565b80156105f65780601f106105cb576101008083540402835291602001916105f6565b820191906000526020600020905b8154815290600101906020018083116105d957829003601f168201915b5050505050935082805461060990611076565b80601f016020809104026020016040519081016040528092919081815260200182805461063590611076565b80156106825780601f1061065757610100808354040283529160200191610682565b820191906000526020600020905b81548152906001019060200180831161066557829003601f168201915b5050505050925081805461069590611076565b80601f01602080910402602001604051908101604052809291908181526020018280546106c190611076565b801561070e5780601f106106e35761010080835404028352916020019161070e565b820191906000526020600020905b8154815290600101906020018083116106f157829003601f168201915b50505050509150975097509750975097509750505091939550919395565b60008054906101000a900473ffffffffffffffffffffffffffffffffffffffff1681565b60006001866040516107629190611030565b90815260200160405180910390209050806006016000815480929190610787906113b7565b91905055506040518060a0016040528082600601548152602001868152602001858152602001848152602001831515815250816005016000836006015481526020019081526020016000206000820151816000015560208201518160010190816107f19190611253565b5060408201518160020190816108079190611253565b50606082015181600301908161081d9190611253565b5060808201518160040160006101000a81548160ff021916908315150217905550905050505050505050565b6040518060a00160405280600081526020016060815260200160608152602001606081526020016000151581525090565b6000604051905090565b600080fd5b600080fd5b600080fd5b600080fd5b6000601f19601f8301169050919050565b7f4e487b7100000000000000000000000000000000000000000000000000000000600052604160045260246000fd5b6108e182610898565b810181811067ffffffffffffffff82111715610900576108ff6108a9565b5b80604052505050565b600061091361087a565b905061091f82826108d8565b919050565b600067ffffffffffffffff82111561093f5761093e6108a9565b5b61094882610898565b9050602081019050919050565b82818337600083830152505050565b600061097761097284610924565b610909565b90508281526020810184848401111561099357610992610893565b5b61099e848285610955565b509392505050565b600082601f8301126109bb576109ba61088e565b5b81356109cb848260208601610964565b91505092915050565b600080600080600080600080610100898b0312156109f5576109f4610884565b5b600089013567ffffffffffffffff811115610a1357610a12610889565b5b610a1f8b828c016109a6565b985050602089013567ffffffffffffffff811115610a4057610a3f610889565b5b610a4c8b828c016109a6565b975050604089013567ffffffffffffffff811115610a6d57610a6c610889565b5b610a798b828c016109a6565b965050606089013567ffffffffffffffff811115610a9a57610a99610889565b5b610aa68b828c016109a6565b955050608089013567ffffffffffffffff811115610ac757610ac6610889565b5b610ad38b828c016109a6565b94505060a089013567ffffffffffffffff811115610af457610af3610889565b5b610b008b828c016109a6565b93505060c089013567ffffffffffffffff811115610b2157610b20610889565b5b610b2d8b828c016109a6565b92505060e089013567ffffffffffffffff811115610b4e57610b4d610889565b5b610b5a8b828c016109a6565b9150509295985092959890939650565b600060208284031215610b8057610b7f610884565b5b600082013567ffffffffffffffff811115610b9e57610b9d610889565b5b610baa848285016109a6565b91505092915050565b600081519050919050565b600082825260208201905092915050565b60005b83811015610bed578082015181840152602081019050610bd2565b60008484015250505050565b6000610c0482610bb3565b610c0e8185610bbe565b9350610c1e818560208601610bcf565b610c2781610898565b840191505092915050565b600081519050919050565b600082825260208201905092915050565b6000819050602082019050919050565b6000819050919050565b610c7181610c5e565b82525050565b600082825260208201905092915050565b6000610c9382610bb3565b610c9d8185610c77565b9350610cad818560208601610bcf565b610cb681610898565b840191505092915050565b60008115159050919050565b610cd681610cc1565b82525050565b600060a083016000830151610cf46000860182610c68565b5060208301518482036020860152610d0c8282610c88565b91505060408301518482036040860152610d268282610c88565b91505060608301518482036060860152610d408282610c88565b9150506080830151610d556080860182610ccd565b508091505092915050565b6000610d6c8383610cdc565b905092915050565b6000602082019050919050565b6000610d8c82610c32565b610d968185610c3d565b935083602082028501610da885610c4e565b8060005b85811015610de45784840389528151610dc58582610d60565b9450610dd083610d74565b925060208a01995050600181019050610dac565b50829750879550505050505092915050565b600060c0820190508181036000830152610e108189610bf9565b90508181036020830152610e248188610bf9565b90508181036040830152610e388187610bf9565b90508181036060830152610e4c8186610bf9565b90508181036080830152610e608185610bf9565b905081810360a0830152610e748184610d81565b9050979650505050505050565b600073ffffffffffffffffffffffffffffffffffffffff82169050919050565b6000610eac82610e81565b9050919050565b610ebc81610ea1565b82525050565b6000602082019050610ed76000830184610eb3565b92915050565b610ee681610cc1565b8114610ef157600080fd5b50565b600081359050610f0381610edd565b92915050565b600080600080600060a08688031215610f2557610f24610884565b5b600086013567ffffffffffffffff811115610f4357610f42610889565b5b610f4f888289016109a6565b955050602086013567ffffffffffffffff811115610f7057610f6f610889565b5b610f7c888289016109a6565b945050604086013567ffffffffffffffff811115610f9d57610f9c610889565b5b610fa9888289016109a6565b935050606086013567ffffffffffffffff811115610fca57610fc9610889565b5b610fd6888289016109a6565b9250506080610fe788828901610ef4565b9150509295509295909350565b600081905092915050565b600061100a82610bb3565b6110148185610ff4565b9350611024818560208601610bcf565b80840191505092915050565b600061103c8284610fff565b915081905092915050565b7f4e487b7100000000000000000000000000000000000000000000000000000000600052602260045260246000fd5b6000600282049050600182168061108e57607f821691505b6020821081036110a1576110a0611047565b5b50919050565b60008190508160005260206000209050919050565b60006020601f8301049050919050565b600082821b905092915050565b6000600883026111097fffffffffffffffffffffffffffffffffffffffffffffffffffffffffffffffff826110cc565b61111386836110cc565b95508019841693508086168417925050509392505050565b6000819050919050565b600061115061114b61114684610c5e565b61112b565b610c5e565b9050919050565b6000819050919050565b61116a83611135565b61117e61117682611157565b8484546110d9565b825550505050565b600090565b611193611186565b61119e818484611161565b505050565b5b818110156111c2576111b760008261118b565b6001810190506111a4565b5050565b601f821115611207576111d8816110a7565b6111e1846110bc565b810160208510156111f0578190505b6112046111fc856110bc565b8301826111a3565b50505b505050565b600082821c905092915050565b600061122a6000198460080261120c565b1980831691505092915050565b60006112438383611219565b9150826002028217905092915050565b61125c82610bb3565b67ffffffffffffffff811115611275576112746108a9565b5b61127f8254611076565b61128a8282856111c6565b600060209050601f8311600181146112bd57600084156112ab578287015190505b6112b58582611237565b86555061131d565b601f1984166112cb866110a7565b60005b828110156112f3578489015182556001820191506020850194506020810190506112ce565b86831015611310578489015161130c601f891682611219565b8355505b6001600288020188555050505b505050505050565b7f4e487b7100000000000000000000000000000000000000000000000000000000600052601160045260246000fd5b600061135f82610c5e565b915061136a83610c5e565b925082820190508082111561138257611381611325565b5b92915050565b7f4e487b7100000000000000000000000000000000000000000000000000000000600052603260045260246000fd5b60006113c282610c5e565b91507fffffffffffffffffffffffffffffffffffffffffffffffffffffffffffffffff82036113f4576113f3611325565b5b60018201905091905056fea2646970667358221220bd1e11c7583783917e5c2accb95a9b22eb9b197d19ff34c0250860e008843eb464736f6c63430008180033",
  "linkReferences": {},
  "deployedLinkReferences": {}
}